:100000000C943B000C94D9040C9450000C945000B8
:100010000C9450000C9450000C9450000C94500020
:100020000C9450000C9450000C9450000C94500010
:100030000C9450000C9450000C9450000C94500000
:100040000C9450000C9450000C9450000C945000F0
:100050000C9450000C9450000C9450000C945000E0
:100060000C9450000C945000DA03E603F203FE03F4
:100070000A041604220411241FBECFEFD8E0DEBF0D
:10008000CDBF11E0A0E0B1E0E4EFFBE002C00590DD
:100090000D92A039B107D9F70E943F030C94F805DF
:1000A0000C940000672B09F0A1C08A30910521F45F
:1000B00085B18E7F85B908958B30910521F485B186
:1000C0008D7F85B908958C30910521F485B18B7FA2
:1000D00085B908958D30910521F485B1877F85B963
:1000E00008958E30910521F485B18F7E85B90895EC
:1000F0008F30910521F485B18F7D85B908958031C8
:10010000910521F485B18F7B85B9089581319105E1
:1001100021F485B18F7785B908958431910521F453
:1001200088B18E7F88B908958531910521F488B111
:100130008D7F88B908958631910521F488B18B7F30
:1001400088B908958731910521F488B1877F88B9EE
:1001500008958831910521F488B18F7E88B908957A
:100160008931910521F488B18F7D88B908958A314C
:10017000910521F488B18F7B88B908958E3191055E
:1001800021F48BB18E7F8BB908958F31910521F4C5
:100190008BB18D7F8BB908958032910521F48BB19D
:1001A0008B7F8BB908958132910521F48BB1877FC4
:1001B0008BB908958232910521F48BB18F7E8BB972
:1001C00008958332910521F48BB18F7D8BB9089509
:1001D0008432910521F48BB18F7B8BB9089585977B
:1001E00009F0A3C08BB18F778BB908958A30910540
:1001F00021F485B1816085B908958B30910521F492
:1002000085B1826085B908958C30910521F485B15E
:10021000846085B908958D30910521F485B1886099
:1002200085B908958E30910521F485B1806185B935
:1002300008958F30910521F485B1806285B90895C4
:100240008031910521F485B1806485B908958131AB
:10025000910521F485B1806885B9089584319105AF
:1002600021F488B1816088B908958531910521F420
:1002700088B1826088B908958631910521F488B1EA
:10028000846088B908958731910521F488B1886028
:1002900088B908958831910521F488B1806188B9C1
:1002A00008958931910521F488B1806288B9089553
:1002B0008A31910521F488B1806488B908958E311E
:1002C000910521F48BB181608BB908958F3191052F
:1002D00021F48BB182608BB908958032910521F4AD
:1002E0008BB184608BB908958132910521F48BB173
:1002F00088608BB908958232910521F48BB18061B9
:100300008BB908958332910521F48BB180628BB94A
:1003100008958432910521F48BB180648BB90895DE
:10032000859719F48BB180688BB90895CF93C82F46
:1003300080FF07C061E070E082E290E00E9452001E
:1003400006C060E070E082E290E00E945200C1FFCF
:1003500007C061E070E083E290E00E94520006C0B6
:1003600060E070E083E290E00E945200C2FF07C0AC
:1003700061E070E08DE090E00E94520006C060E015
:1003800070E08DE090E00E945200C3FF07C061E082
:1003900070E085E290E00E94520006C060E070E0EC
:1003A00085E290E00E945200CF910895CF93C82F2C
:1003B00060E070E08AE090E00E9452008C2F0E9482
:1003C000960161E070E08CE090E00E9452008FE9BD
:1003D0009FE00197F1F700C0000060E070E08CE062
:1003E00090E00E9452008FE99FE00197F1F700C072
:1003F0000000CF91089580E00E94D60181E00E9424
:10040000D6010895CF93813061F480E8860FC62F1E
:10041000CF7082958F700E94D6018C2F0E94D601DA
:100420000DC0823059F480EC860FC62FCF708295B4
:100430008F700E94D6018C2F0E94D601CF91089513
:1004400080E00E9496012FEF89EF90E021508040DC
:100450009040E1F700C0000083E00E94D6018FE1E8
:100460009EE40197F1F700C0000083E00E94D601EE
:100470008FED9BEA0197F1F700C0000083E00E9436
:10048000D60182E00E94D60182E00E94D60188E077
:100490000E94D60180E00E94D6018CE00E94D60125
:1004A00080E00E94D60186E00E94D6010895CF9395
:1004B000DF93D82FDF70C82FC07F61E070E08AE043
:1004C00090E00E9452008C2F82958F700E949601BE
:1004D00061E070E08CE090E00E9452008FE99FE0C4
:1004E0000197F1F700C0000060E070E08CE090E060
:1004F0000E9452008FE99FE00197F1F700C00000D1
:100500008D2F0E94960161E070E08CE090E00E94E7
:1005100052008FE99FE00197F1F700C0000060E012
:1005200070E08CE090E00E9452008FE99FE001971C
:10053000F1F700C00000DF91CF9108950F931F9352
:10054000CF93DF938C01C0E0D0E003C00E9457023C
:100550002196F801EC0FFD1F80818111F7CFDF910B
:10056000CF911F910F9108951092C50087E6809357
:10057000C40088E18093C10086E08093C2000895A2
:100580009091C00095FFFCCF8093C60008958091A4
:10059000C0008823E4F78091C6000895FC0180E044
:1005A00090E002C00196FA01AF014F5F5F4F2081DA
:1005B0002111F8CF0895EF92FF920F931F93CF93DD
:1005C000DF937C010E94CE028C01C0E0D0E008C025
:1005D000F701EC0FFD1F808181110E94C00221965E
:1005E000C017D107ACF3DF91CF911F910F91FF900E
:1005F000EF9008958AE791EE9093850080938400B0
:100600001092800084E080938100B09BFECF109216
:10061000810081E086BB0895ECE7F0E08081816491
:100620008083EAE7F0E08081836080838081806856
:10063000808308951D9B07C085B18F7D85B985B1E5
:10064000806185B908C01C9B06C085B18F7E85B9C5
:1006500085B1806285B90E94FA02089580E090E039
:100660000AC016BC14BC25E025BDA89BFECF15BC56
:1006700021E025BB01968D33910599F708958FEF01
:100680008AB984B915B81BB893EC94BD95E095BDB3
:1006900087BD0E9420020E94FB010E94B40260E01C
:1006A00081E00E94020285E091E00E949E028CE0BF
:1006B00091E00E94DB020E94B4020E94C702809374
:1006C00004010E94200280910401813409F0C6C017
:1006D0000E94FB010E94200263E081E00E9402026E
:1006E0008CE191E00E949E0283E291E00E94DB0295
:1006F0008AB18B7F8AB98AB1877F8AB987B18863CB
:1007000087B985B1806285B985B1846085B983E890
:1007100084BD85E085BD0E940C034B9B19C00E94DF
:10072000FB018DE291E00E94DB0288B18F7E88B9E7
:1007300088B18F7D88B988B1877F88B917BC60E0A0
:1007400081E00E94020283E391E00E949E0286C043
:10075000EAE7F0E080818064808380917A0086FD02
:10076000FCCF209178008091790090E0982F882725
:10077000822B96958795969587958F3F910521F0C9
:100780001CF08FEF87BD01C087BD4A9B0E941A03F2
:100790000E94FA020E94850566E070E00E940B0547
:1007A000FC013196E730F10508F0B7CFEC5CFF4F64
:1007B0000C941F0588B1806188B988B18F7D88B994
:1007C00088B1877F88B90E94FA02A7CF88B18F7E4F
:1007D00088B988B1806288B988B1877F88B90E945A
:1007E000FA029BCF88B18F7E88B988B18F7D88B996
:1007F00088B1886088B90E94FA028FCF88B18F7E55
:1008000088B988B1806288B988B1886088B90E9447
:10081000FA0283CF88B1806188B988B1806288B9D3
:1008200088B1886088B90E94FA0277CF88B1806168
:1008300088B988B18F7D88B988B1886088B90E94ED
:10084000FA026BCF88B1806188B988B1806288B9BB
:1008500088B1877F88B90E94FA025FCF8091040136
:10086000823409F028CF8AB18B7F8AB98AB1877F19
:100870008AB985B1846085B90E94FB010E9420027B
:1008800063E081E00E9402028CE391E00E949E02FC
:1008900083E491E00E94DB020E942E030E94FB0190
:1008A0008DE491E00E949E02E0E8F0E080818268A1
:1008B0008083E1E8F0E080818A61808380E49CE9C4
:1008C0009093870080938600C0E0D0E04A990FC0E3
:1008D0002196C530D10514F0C0E0D0E02FEF80E7BD
:1008E00092E0215080409040E1F700C00000C2300B
:1008F000D10579F134F4209761F0C130D105C9F008
:10090000E5CFC330D105A9F1C430D10509F441C008
:10091000DDCF0E94FB018DE491E00E949E022FEF4B
:1009200089E698E1215080409040E1F700C0000046
:10093000CDCF0E94FB0186E591E00E949E022FEF41
:1009400089E698E1215080409040E1F700C0000026
:10095000BDCF0E94FB0183E691E00E949E022FEF33
:1009600089E698E1215080409040E1F700C0000006
:10097000ADCF0E94FB0181E791E00E949E022FEF24
:1009800089E698E1215080409040E1F700C00000E6
:100990009DCF0E94FB0181E891E00E949E022FEF13
:1009A00089E698E1215080409040E1F700C00000C6
:1009B0008DCF1F920F920FB60F9211242F933F935A
:1009C0004F935F936F937F938F939F93AF93BF9357
:1009D000EF93FF930E94FB018DE291E00E94DB0206
:1009E00060E081E00E94020283E391E00E949E02A7
:1009F0000E942E03FF91EF91BF91AF919F918F9134
:100A00007F916F915F914F913F912F910F900FBE0A
:100A10000F901F90189597FB072E16F4009407D09F
:100A200077FD09D00E94250507FC05D03EF490957E
:100A300081959F4F0895709561957F4F0895EE0FB2
:100A4000FF1F0590F491E02D0994AA1BBB1B51E1F7
:100A500007C0AA1FBB1FA617B70710F0A61BB70B2E
:100A6000881F991F5A95A9F780959095BC01CD01D3
:100A700008958F929F92AF92BF92CF92DF92EF92A2
:100A8000FF92CF93DF93EC01688179818A819B810A
:100A9000611571058105910521F464E279ED8BE51D
:100AA00097E02DE133EF41E050E00E9495054901C8
:100AB0005A019B01AC01A7EAB1E40E94B4056B01A5
:100AC0007C01ACEEB4EFA50194010E94C205DC01EB
:100AD000CB018C0D9D1DAE1DBF1DB7FF03C001973F
:100AE000A109B04888839983AA83BB839F77DF914C
:100AF000CF91FF90EF90DF90CF90BF90AF909F90FD
:100B00008F9008950E943905089580E091E00E9439
:100B100039050895A0E0B0E08093000190930101B1
:100B2000A0930201B09303010895052E97FB1EF4D4
:100B300000940E94AC0557FD07D00E94C70507FC32
:100B400003D04EF40C94AC0550954095309521950A
:100B50003F4F4F4F5F4F08959095809570956195E9
:100B60007F4F8F4F9F4F08950E94E905A59F900DDD
:100B7000B49F900DA49F800D911D11240895B7FF7F
:100B80000C94B4050E94B405821B930B0895A1E256
:100B90001A2EAA1BBB1BFD010DC0AA1FBB1FEE1FF7
:100BA000FF1FA217B307E407F50720F0A21BB30B42
:100BB000E40BF50B661F771F881F991F1A9469F7BE
:100BC00060957095809590959B01AC01BD01CF011A
:100BD0000895A29FB001B39FC001A39F700D811D16
:100BE0001124911DB29F700D811D1124911D089536
:040BF000F894FFCFA7
:100BF40001000000304D6F646544210057656C634B
:100C04006F6D6520746F207573650A004D6F6465A0
:100C1400412100496E206D6F6465410A0051756978
:100C2400740A0057656C636F6D6521004D6F6465D0
:100C3400422100496E206D6F6465420A0053657459
:100C44002074696D6500536574206F6E6520686F4C
:100C54007572005365742074776F20686F757273B2
:100C64000053657420746872656520686F757273CB
:100C74000053657420666F757220686F7572730017
:00000001FF
